:020000040800F2
:10000000901C0020450100081F1F00083918000837
:100010001D1F000821070008312300080000000010
:10002000000000000000000000000000231F000886
:100030002307000800000000211F0008251F0008FA
:100040005F0100085F0100085F0100085F01000810
:100050005F0100085F0100085F0100085F01000800
:100060005F0100085F0100085F0100085F010008F0
:100070005F0100085F0100085F0100085F010008E0
:100080005F0100085F0100085F0100085F010008D0
:100090005F0100085F0100085F0100085F010008C0
:1000A0005F0100085F0100085F0100085F010008B0
:1000B000C11F00085F0100085F0100085F01000820
:1000C0005F0100085F0100085F0100085F01000890
:1000D0005F010008052300085F01000811230008E4
:1000E0005F0100085F0100085F0100085F01000870
:1000F0005F0100085F0100085F0100085F01000860
:100100005F0100085F0100085F0100085F0100084F
:100110005F0100085F0100085F0100085F0100083F
:100120005F0100085F0100085F0100085F0100082F
:10013000DFF80CD000F064FA00480047C53400082E
:10014000901C00200648804706480047FEE7FEE76F
:10015000FEE7FEE7FEE7FEE7FEE7FEE7FEE7FEE777
:10016000791F000831010008202A04DB203A21FA17
:1001700002F00021704721FA02F3D040C2F12002C0
:10018000914008431946704740EA01039B0703D09A
:1001900009E008C9121F08C0042AFAD203E011F8C6
:1001A000013B00F8013B521EF9D27047D2B201E088
:1001B00000F8012B491EFBD270470022F6E710B56C
:1001C00013460A4604461946FFF7F0FF204610BDC5
:1001D00030B505462A460B4612F8010B13F8014BC1
:1001E00008B1A042F8D01CB1002802D06D1CF1E784
:1001F000284630BD421C10F8011B0029FBD1801A93
:10020000704730B50B46014600202022012409E04A
:1002100021FA02F59D4205D303FA02F5491B04FABF
:1002200002F52844151EA2F10102F1DC30BD2DE9D2
:10023000F05F0546002092469B468846064681466A
:1002400040241BE02846414647462246FFF78CFFE4
:1002500053465A46C01A914110D3114618462246B9
:1002600000F0E0F92D1A67EB01084F462246012005
:10027000002100F0D7F917EB00094E41201EA4F130
:100280000104DFDC484631462A464346BDE8F09F7C
:100290002DE9FE4F804681EA0300C00F0C46009016
:1002A00021F0004123F00045B8EB0200A94105D23E
:1002B0004046214690461C460B46024623F000402D
:1002C000104347D0270DC7F30A00C3F30A51029029
:1002D000401A019040286BDAC3F3130040F4801BEE
:1002E0000098924620B10023D2EB030A63EB0B0B7C
:1002F00001985946C0F14002504600F093F9064675
:100300000D4650465946019A00F09BF910EB080043
:100310006141002487EA115284EAE7731A4340D00E
:10032000009A62B3019A012A4FEA075215DC001BBA
:1003300061EB02014FF0004202EA0752CDE90042B0
:10034000001C41F5801132462B4600F09BF903B0AA
:10035000BDE8F08F40462146F9E7001B61EB020142
:10036000001C41F5801300185B412018A2F500170E
:1003700047EB030140EAD570B6196D4111E06D08F5
:100380004FEA360645EAC0754FEA0752001B61EB9B
:100390000201001C41F5801149084FEA30000019A4
:1003A000514132462B4603B0BDE8F04F00F05BB937
:1003B0000098012240000023D0EB020263EBE073BF
:1003C000009821464FEAE074B8EB000061EB0401AD
:1003D000E9E783F000435BE781F0004158E72DE94E
:1003E000FE4F81EA030404F0004421F00041009430
:1003F0004FF0000B23F0004350EA01045ED052EAB4
:1004000003045BD0C3F30A54C1F30A552C44A4F28D
:10041000F3340194A0FB0254C1F3130141F48011A1
:10042000C3F3130343F4801301FB024400FB034EA8
:10043000840A970A44EA815447EA8357A4FB076871
:1004400002958D0A05FB07854FEA932C04FB0C549B
:100450002705029D4FEA065847EA1637B5EB08050F
:100460006EEB070C870E920E47EA811742EA831261
:10047000A7FB0201B6EB0B0164EB00042B0D43EA72
:100480000C335E1844EB1C50DA465146E7FB020180
:10049000C5F313044FEA0B3343EA14534FEA043213
:1004A000019C43EA0603A4F10C040294009CCDE9EC
:1004B00000B400F0E7F803B0BDE8F08F002001467B
:1004C000F9E72DE9F04D81EA030404F0004B21F037
:1004D000004514464FF0000A23F0004150EA05029F
:1004E00020D054EA01021DD0C5F30A570246C5F3D5
:1004F0001303C1F31300C1F30A5640F4801543F40B
:100500008013A7EB0608101BD64608F2FD3873EBE4
:10051000050002D308F1010801E092185B41B8F12F
:10052000000F03DA00200146BDE8F08D00204FF4F3
:100530008011064684460EE0171B73EB050705D3B2
:10054000121B63EB050306434CEA010C49084FEA12
:10055000300092185B4150EA0107EDD152EA0300E6
:1005600012D082EA040083EA0501084305D0101B7B
:10057000AB4106D20122002306E000224FF00043E7
:1005800002E06FF0010253101AEB06004CEB085129
:1005900010EB0A0041EB0B01BDE8F04D00F063B831
:1005A000C1F30A52C1F3130140F2FF3341F4801149
:1005B0009A4202DA00200146704740F233439A42E1
:1005C000A2F2334202DC5242FFF7CEBD00F02AB85D
:1005D00030B5041E71F1000404DB4FF000444042CA
:1005E00064EB0101141E73F1000405DB1C464FF09F
:1005F0000043524263EB0403994208BF904230BD6E
:10060000064C074D06E0E06840F0010394E807005F
:1006100098471034AC42F6D3FFF78EFD704C0008BB
:10062000904C0008202A04DB203A00FA02F1002056
:1006300070479140C2F1200320FA03F31943904020
:100640007047202A06DBCB17203A41FA02F043EA32
:10065000E07306E041FA02F3D040C2F1200291407B
:1006600008431946704710B5141E73F1000408DAE8
:10067000401C41F1000192185B411A4301D120F066
:10068000010010BD2DE9F04D92469B4611B1B1FA23
:1006900081F202E0B0FA80F220329046FFF7C2FF0A
:1006A00004460F4640EA0A0041EA0B0153465A4607
:1006B000084313D0114653EA010019D0C8F1400293
:1006C0005046FFF751FD05460E46504659464246F4
:1006D000FFF7A8FF084305D0012004E02046394673
:1006E000BDE8F08D0020054346EAE0762C43374311
:1006F0000A986305E40AA0EB08000022FD0A44EA18
:1007000047540A3002D500200146E9E701051019D7
:100710006941DDE9084500196941BDE8F04DA2E7EE
:10072000FEE77047704700002DE9F05F90F8211058
:100730000024022903D004218163012485E001689B
:100740000A6822F00E020A6001680A6822F00102BB
:100750000A603F4E3E4FB215DFF8F4C0DFF8F0906C
:10076000DFF8ECA0DFF8E8B0DFF8E4E00168783FFC
:1007700013011502ACF1640CA9F15009AAF13C0A6D
:10078000ABF1280BAEF1140E4FF48018B14227D90B
:10079000B9420ED0614512D049451DD0514518D0FF
:1007A000594518D0714501D1424615E0294EB14254
:1007B00001D1012210E0274E1436B14201D110229E
:1007C0000AE0244E2836B14206D0224A3C329142F9
:1007D00001D11A4600E02A461E49091F0A602BE093
:1007E000B94213D0614517D0494522D051451DD09B
:1007F00059451DD0714501D142461AE0B14202D19E
:100800004FF0807215E0134EB14201D1012210E089
:10081000104E1436B14201D110220AE00D4E283696
:10082000B14206D00B4A3C32914201D11A4600E057
:100830002A46074980394A60012180F821100021A9
:1008400080F82010416B01B188472046BDE8F09F39
:10085000800002400804024070B5044600F00AF926
:100860000546601C02D004480078044400F002F9F8
:10087000401BA042FAD370BD040000202DE9F84FC0
:10088000DFF8C891002409F1040A0AF1040B234699
:100890000F270BF1040ED1E00125A54006EA050261
:1008A000AA4276D1DFF8A8C14E68A6EB0C086645CF
:1008B0002BD00DDC032E34D005DC36B3012E19D03D
:1008C000022E2FD11BE0112E16D0122E2AD119E0A4
:1008D000B8F5881F19D006DCB8F5803F15D0B8F5FB
:1008E000801F1FD111E0B8F5001F0ED0B8F5041F0E
:1008F00018D10AE0CB6815E0CB681B1D12E0CB686D
:1009000008330FE0CB680C330CE08B682BB1012B64
:100910004FF0080303D0456104E0042302E00561C1
:1009200000E00023FF2A01D8064601E000F104069A
:100930004FEA840501D9A5F12005D6F8008007FA11
:1009400005FC28EA0C0803FA05F548EA0508C6F88C
:1009500000804D68ED0070D53E4DAE6946F0010651
:10096000AE61AD6924F0030605F0010500953A4D2E
:1009700006EB050CDCF80850A607360F07FA06F858
:1009800025EA0805DFF8D480404503D14FF0000880
:1009900025E052E0DFF8C880404502D14FF0010861
:1009A0001DE0DFF8C080404502D14FF0020816E09C
:1009B000DFF8B480404502D14FF003080FE0DFF8C4
:1009C000AC80404502D14FF0040808E0DFF8A08079
:1009D000404502D14FF0050801E04FF0060808FA43
:1009E00006F848EA0508CCF808804D68D9F8006098
:1009F000ED034D4601D5164300E096432E604D6849
:100A0000DAF80060AD03554601D5164300E0964381
:100A10002E604D68DBF80060ED025D4601D516439F
:100A200000E096432E604D68DEF80060AD0275462A
:100A300001D5164300E096432E60641C0A681646F2
:100A4000E2407FF429AFBDE8F88F000000040140C8
:100A50000000111000100240000001400008014099
:100A6000000C01400010014000140140001801403A
:100A7000001C01400148806870470000040000200D
:100A800002488168027811448160704704000020A8
:100A9000074810B5016841F010010160032000F023
:100AA00075F8002000F006F800F024F8002010BDD2
:100AB0000020024070B50D4D04464FF47A7128783D
:100AC000B1FBF0F00A490968B1FBF0F000F0ECFA74
:100AD00048B9102C07D200222146501E00F036F8EB
:100AE00000206C6070BD012070BD0000040000207B
:100AF000100000200C4808B5816941F001018161B6
:100B0000816901F001010091C16941F08051C16129
:100B1000C06900F0805000900448416821F0E06115
:100B200041F00071416008BD00100240000001402A
:100B3000002809DB00F01F020121914040098000DC
:100B400000F1E020C0F8001170470000F0B40E4B37
:100B50001B680C46C3F30223C3F10705042D00D91B
:100B60000425191D072901D2002300E0DB1E012600
:100B700006FA05F1491E214099409E40761E164016
:100B80003143F0BC01F0FCBB0CED00E0064900F085
:100B9000070208684FF6FF03184040EA0220034AA4
:100BA00010430860704700000CED00E00000FA05FB
:100BB0002DE9F0470F46050061D0434E306800F044
:100BC0000700B84209D2306820F00700384330608F
:100BD000306800F00700B84251D128683B4C8107CB
:100BE00012D5400703D5606840F4E0606060287863
:100BF000000703D5606840F4605060606068A968D1
:100C000020F0F000084360602878C00728D06868AA
:100C1000012810D02168022810D0890700292EDA77
:100C2000616821F0030101436160FFF723FF804603
:100C300041F288390DE021688903EFE78901EDE78A
:100C4000FFF718FFA0EB0801494502D90320BDE8D2
:100C5000F0876068696800F00C00B0EB810FEFD19D
:100C6000306800F00700B8420BD9306820F0070068
:100C700038433060306800F00700B84201D00120EE
:100C8000E5E72878400705D56068E96820F4E0606A
:100C9000084360602878000706D56068296920F459
:100CA000605040EAC100606000F038F86168084AAE
:100CB000C1F30311515CC84006490860064800684A
:100CC000FFF7F8FE0020C2E70020024000100240BB
:100CD000C04B00081000002008000020044805490F
:100CE00000684968044AC1F30221515CC84070475A
:100CF0001000002000100240D04B000804480549B5
:100D000000684968044AC1F3C221515CC840704779
:100D10001000002000100240D04B000812A185B046
:100D20000FC98DE80F0014A0144A006804905168A0
:100D3000134801F00C03042B10D0082B0ED1C1F383
:100D40008343C9031DF803000AD5516804AAC1F3FF
:100D50004041515C0A4A5043B0FBF1F005B0704786
:100D600008494843FAE7000002030405060708099A
:100D70000A0B0C0D0E0F10100102000000100240B3
:100D800000127A0000093D002DE9F84F040070D0F0
:100D90002078C04DC00749D06868C0F381000128A1
:100DA00007D06868C0F38100022809D16868C003D1
:100DB00006D52868800339D560680028E7D035E07B
:100DC0006068B0F5803F0BD010B1B0F5A02F11D006
:100DD000286820F480302860286820F4802002E011
:100DE000286840F480302860606890B1FFF742FEC8
:100DF00006460AE0286840F480202860F0E700BF3B
:100E0000FFF738FE801B642873D828688003F7D565
:100E10000CE0FFF72FFE064605E000BFFFF72AFEB5
:100E2000801B6428F0D828688003F7D420789A4E75
:100E300080074FF001094FF0000839D5686810F0BD
:100E40000C0F07D06868C0F38100022809D16868D8
:100E5000C00306D42868800714D52069012808D16A
:100E600010E02069B0B1C6F80090FFF703FE074616
:100E700005E00AE1FFF7FEFDC01B0228C4D8286880
:100E80008007F7D52868616920F0F80040EAC100C2
:100E900028600DE0C6F80080FFF7ECFD074604E08F
:100EA000FFF7E8FDC01B022823D828688007F7D485
:100EB000207800072CD57948A169D9B1C0F80090F5
:100EC000FFF7D8FD074604E0FFF7D4FDC01B02285A
:100ED0000FD8686A8007F7D571484FF4FA51006857
:100EE000B0FBF1F0009000BF0098411E0091FAD2D3
:100EF0000EE080E0C0F80080FFF7BCFD074604E08C
:100F0000FFF7B8FDC01B022875D8686A8007F7D4C0
:100F10002078400760D5E8690027C00008D4E86958
:100F200040F08050E861E869012700F080500090AF
:100F30005C480168C90513D40168834641F4807197
:100F40000160FFF797FD824606E000BFFFF792FDC4
:100F5000A0EB0A0064284ED8DBF80000C005F5D5E8
:100F6000E06801280AD008B1052813D0286A20F0CB
:100F700001002862286A20F0040002E0286A40F09C
:100F800001002862E06841F2883B98B1FFF772FDEA
:100F900082460BE0286A40F004002862EEE700BFBA
:100FA000FFF768FDA0EB0A0159455AD8286A800767
:100FB000F6D50CE0FFF75EFD824605E0FFF75AFD2F
:100FC000A0EB0A0159454CD8286A8007F6D41FB116
:100FD000E86920F08050E861E06988B36968C1F38E
:100FE0008101022944D00228C6F8608004D0FFF7AE
:100FF00041FD044638E034E0FFF73CFD074604E0DD
:10100000FFF738FDC01B02282BD828688001F7D4D1
:10101000206AB0F5803F05D16868A16820F40030EF
:1010200008436860D4E908010843696821F4741131
:1010300008436860C6F86090FFF71CFD044606E0B0
:1010400025E000BFFFF716FD001B022809D828681D
:101050008001F7D51BE000BFFFF70CFD001B022845
:1010600002D90320BDE8F88F28688001F4D40EE08F
:101070000128F7D06868226A00F48031914204D1D7
:10108000616A00F47010884201D00120EAE7002074
:10109000E8E70000001002400000424280044242A3
:1010A000100000200070004010B5401EB0F1807F9D
:1010B00001D3012010BD4FF0E02460610F216017C3
:1010C00001F05EF90020A06107202061002010BD22
:1010D0007047704770B590F83C20012A19D0012460
:1010E00000F83C4F0222427050F83C3C5A689D6820
:1010F00022F070060A684968324325F080052943CA
:101100005A6050F83C2C91604470002101700846F0
:1011100070BD022070BD10B5040003D094F83D00EE
:1011200010B107E0012010BD002084F83C002046EB
:1011300000F00CF8022084F83D00211D206800F02A
:1011400045FF012084F83D00002010BD08B500686F
:10115000B0F1804F12D10A48C16941F00101C1616B
:10116000C069002200F00100009001211C20FFF75F
:10117000EDFCBDE808401C20FFF7DABC08BD00000C
:10118000001002400168CA6842F00102CA600068AB
:10119000816801F00701062903D0016841F00101CF
:1011A00001600020704770B5044690F83C000128AB
:1011B00017D0012584F83C50022084F83D002068B7
:1011C000826822F0770222F47F4282600868502809
:1011D00030D00DDC20284DD005DC98B310283BD151
:1011E00048E0022070BD302844D0402834D139E096
:1011F000602828D0702806D0B0F5805F2CD0B0F5DC
:10120000005F29D10AE0CB68D1E90121206800F014
:1012100023FF2068816841F0770109E0CB68D1E9BC
:101220000121206800F018FF2068816841F48041A6
:10123000816011E0CA684968206800F01FFF5021F2
:10124000206807E016E0CA684968206800F027FFB8
:101250006021206800F00AFF84F83D50002084F8E7
:101260003C0070BDCA684968206800F007FF402153
:101270002068EFE7226801461046EBE7704770B53B
:101280000446006801694FF00005C943890715D479
:10129000C168C943890711D4E91E01610120207783
:1012A000206880698007204602D0FFF7E7FF04E04E
:1012B00000F098F8204600F096F82577206801693C
:1012C000C943490717D4C168C943490713D46FF00C
:1012D00004010161022020772068806910F4407FBA
:1012E000204602D0FFF7CAFF04E000F07BF820465A
:1012F00000F079F8257720680169C943090716D4F9
:10130000C168C943090712D46FF0080101610420C4
:1013100020772068C0698007204602D0FFF7AEFF23
:1013200004E000F05FF8204600F05DF825772068C3
:101330000169C943C90617D4C168C943C90613D492
:101340006FF010010161082020772068C06910F457
:10135000407F204602D0FFF791FF04E000F042F802
:10136000204600F040F8257720680169C943C90785
:1013700008D1C168C943C90704D1891E016120464B
:1013800000F032F820680169C943090609D4C16830
:10139000C943090605D46FF0800101612046FFF7BB
:1013A00097FE20680169C943490609D4C168C94349
:1013B000490605D46FF040010161204600F03CF879
:1013C00020680169C94389060BD4C168C9438906ED
:1013D00007D46FF0200101612046BDE87040FFF79F
:1013E00078BE70BD7047704710B50068B0F1804F8F
:1013F0001BD10E480E4C00220188C1F30E0341F4AC
:101400000041E25401800B48911E0268116100689E
:10141000016A41F21112114207D1016A9210114280
:1014200003D1016821F00101016010BD020000201C
:1014300064000020240000207047704770B50268E7
:1014400004461068D168536910F00F0F51D003F0B3
:10145000010501F4907635435DD0C20705D0CA0579
:1014600003D5E26B42F00102E263420705D5DA07D9
:1014700003D0E26B42F00202E263820705D5DA078D
:1014800003D0E26B42F00402E263020705D5DA07FB
:1014900003D0E26B42F00802E263E26B002A34D030
:1014A000800604D5880602D5204600F020FE20687C
:1014B0004069E16BC0F3801001F008010143204650
:1014C00024D000F006FE2068416949061AD541691A
:1014D00021F040014161606BA0B11B494163606B29
:1014E000FFF722F9002810D0606B416BBDE8704017
:1014F000084783060FD58B060DD52046BDE8704002
:1015000000F0F5BD2046FFF798FF70BDFFF795FF8F
:101510000020E06370BD030606D50B0604D5204607
:10152000BDE8704000F08ABE4006F3D54806F1D50C
:10153000D168204621F04001D160202184F8391083
:1015400000F079F970BD0000C320000870B50400F8
:1015500004D094F83900002510B106E0012070BDD8
:1015600084F83850204600F023F8242084F839000D
:101570002068C16821F40051C160204600F002FEDD
:101580002068016921F4904101612068416921F0DE
:101590002A0141612068C16841F40051C160E563DE
:1015A000202084F8390084F83A00002070BD000043
:1015B000F0B585B00024009401940294039405468C
:1015C00003683E4F02203E4903224602BB4229D116
:1015D0008B6943F480438B618B6903F480430493EC
:1015E0008B6943F004038B618969364D01F0040176
:1015F00004910102CDE90010039269462846FFF7E5
:101600003DF9CDE90064694628460294FFF736F9B2
:10161000002203212520FFF799FA2520FFF788FAF9
:1016200005B0F0BD284FBB42FAD1CB6943F480230B
:10163000CB61CB6903F4802304938B6943F00803E7
:101640008B61896901F00801CDE90321CDE90060D2
:101650001E4E69463046FFF711F9F014CDE900043B
:10166000694630460294FFF709F90022022127203B
:10167000FFF76CFA2720FFF75BFA2868C16841F092
:101680002001C1602720FFF753FA00220221272002
:10169000FFF75CFA00F0D6FB0D4844800D48006867
:1016A000016A41F211121142BAD1016A921011423B
:1016B000B6D1016821F001010160B1E700380140B5
:1016C000001002400008014000480040000C0140AA
:1016D000000000202400002090F83A30202B22D176
:1016E000F9B1F2B190F83830012B1CD081628285BB
:1016F000C2850021C163222280F83A2080F8381088
:101700000168CA6842F48072CA6001684A6942F09E
:1017100001024A610068C16841F02001C1600020F7
:1017200070470120704702207047000010B5006824
:101730000E49884215D10E494888020411D4B0F5EB
:10174000487F0FD20B4A00231468636220B91268E5
:10175000136843F001031360074B0A781A54401CC6
:10176000488010BD40F40040FAE700000048004007
:101770000000002024000020640000202DE9F84330
:10178000044690F839001F4616460D46202850D1D1
:10179000A5B19EB194F8380001284AD0012084F800
:1017A00038004FF00008C4F83C80212084F839004C
:1017B000FFF760F9A6848146E68426E00120BDE8B3
:1017C000F883E08C401EE084A0684B46B0F5805F53
:1017D0004FF000024FF080012046009703D000F048
:1017E0005EFDE8B90DE000F05AFDC8B9288821680F
:1017F000C0F308004860206908B16D1C05E0AD1C0D
:1018000003E0216815F8010B4860E08C0028D8D16E
:101810004B46002240212046009700F040FD08B1D1
:101820000320CCE7202084F8390084F83880002099
:10183000C5E70220C3E77047FEE70000BAB04BA03F
:1018400001F0E8FE58224F4901A8FEF79DFC4E4CDE
:10185000C8214E486180FEF7B0FC4C4D4CA2C83503
:101860004EA1284600F066FD05F1800655A348A26A
:1018700057A1304600F05EFD3046FEF7BBFC2070FD
:1018800050A0009042A342A253A117A800F052FD1D
:1018900017A8FEF7AFFC20210091014657A305F5DC
:1018A000807217A801F0FFFE05F58070FEF7A2FC1C
:1018B000607029465AA001F0ADFE31465CA001F0EF
:1018C000A9FE05F580715EA001F0A4FE03208DF84D
:1018D0000C007820ADF81C0001208DF81E0005F5E5
:1018E000807014900495119601AA6188274800F031
:1018F000A1F902462549032001F072FE544A61888D
:10190000224800F06FF90228F8D163881F4A37A9EE
:1019100038A800F0EBF80128F0D19DF8DC00002891
:10192000ECD14CA001F076FE40F6B8352846FEF723
:1019300093FF6188154800F044FA024613490320DA
:1019400001F04EFE6420FEF787FF47A001F062FE23
:101950003F4A61880D4800F045F90D2803D045A0A5
:1019600001F058FEE2E745A0FAE70000BDF8C8EB39
:10197000C1ACBDD3D4C6B7FECEF1C6F7BAAFCAFD6F
:101980000D0A0000D84B000818000020440A00206F
:10199000536D6172744C45445F30310025737C7324
:1019A00065637572656D6F64653D332C7369676E31
:1019B0006D6574686F643D686D6163736861317CE7
:1019C0000000000061317730584A62587768300073
:1019D0002573262573000000636C69656E74496485
:1019E00025736465766963654E616D6525737072F4
:1019F0006F647563744B65792573000075774D4A84
:101A0000594F47536F41504E645A424F6938687975
:101A100044583271426E48515967476F00000000C8
:101A2000436C69656E7449643A25730D0A000000C1
:101A3000557365726E616D653A25730D0A0000007D
:101A400050617373776F72643A25730D0A0000005A
:101A5000B9350008436F6E6E656374205375636318
:101A6000657373210D0A000050696E672E2E2E0DCE
:101A70000A0000004F4F50530D0A0000506F6E6770
:101A80000D0A000010B50F4C0F48618800F099F95D
:101A900002460D49032001F0A3FD0CA001F0BAFDA0
:101AA0000D4A6188084800F09DF80D2804D00BA06D
:101AB00001F0B0FD012010BD0AA001F0ABFD002037
:101AC00010BD000018000020440A002050696E6715
:101AD0002E2E2E0D0A000000B93500084F4F50532E
:101AE0000D0A0000506F6E670D0A00002DE9FC41E1
:101AF000074600240E4625466846009201F056FD32
:101B00000146204661F307000009022819D101A906
:101B1000009800F035F800990546084401990090B6
:101B20000144081A02280CDB684601F03FFD60F30F
:101B3000070404F001003870684601F037FD30708A
:101B400001252846BDE8FC81F8B5012500240E4694
:101B500007460C60641C042C0FDC01216846B84762
:101B600001280AD19DF80000316800F07F0202FBD5
:101B70000511ED0131600006ECD42046F8BD0000EF
:101B8000024A10600248FFF7DFBF00001400002087
:101B90005D2C000810B503460020CA1701EB526403
:101BA00024F07F02891ACAB2E111002901DD42F056
:101BB00080021A5400F10100EFDC10BD401C8028A7
:101BC00001DA401C7047B0F5804F01DA801C704785
:101BD0000349884201DAC01C7047001D70470000AD
:101BE000FFFF1F002DE9F8430024884616460546EE
:101BF0004FF0FF3701210094B047012816D1694604
:101C00003046FFF7A1FF681C0099FFF7C3FF00995A
:101C1000401C0B18434509DC21B12844B04700990A
:101C2000884203D1287860F3070427093846BDE8C5
:101C3000F88300002DE9F8430746009088461446D3
:101C40000025104600F082F88146FFF7B7FF4045B7
:101C500002DDA81EBDE8F8832E46314666F3070173
:101C60006846103102F07CFF49460098FFF792FF6A
:101C7000009908440090207A04281DD02FA16846BE
:101C800002F05AFF0321684602F06AFFA07E66F365
:101C9000070560F34105E07E08B145F004056807DB
:101CA00007D594F83D0060F3C40594F83C0060F358
:101CB0004515206C40B905E022A1684602F03CFFC2
:101CC0000421E0E7A06C08B145F08005E06C08B99C
:101CD000606D08B145F040052946684602F040FFB6
:101CE000218B684602F042FF04F10C0168460EC9E0
:101CF00002F04BFFE07E68B12434684694E80E00A1
:101D0000243C02F042FF3034684694E80E00303C38
:101D100002F03BFF280605D504F1400168460EC9D4
:101D200002F033FF680605D54C34684694E80E008F
:101D300002F02BFF0098C01B8CE700004D51497347
:101D4000647000004D5154540000000070B504460A
:101D5000007A0025032802D0042802D002E00C25D6
:101D600000E00A2504F10C0007C800F046F805441D
:101D7000E07EAD1C78B1243494E80700243C00F0E8
:101D80003CF83034064694E80700303C00F035F863
:101D9000304405442D1D206C08B9A16C29B1D4E94B
:101DA000111200F02AF80544AD1CE06C08B9616D11
:101DB00029B1D4E9141200F020F80544AD1C2846DE
:101DC00070BD0C22AFF3008038B5002304460090AC
:101DD000022901DA981E38BD194663F3070162F340
:101DE0000711684602F0BCFE00210098FFF7D2FE02
:101DF000009908440090001B38BD10B510B1FEF7E3
:101E0000F9F90146084610BD0D4808B5816941F051
:101E100010018161816901F010010091816941F037
:101E200008018161816901F008010091816941F037
:101E300004018161806900F00400009008BD000089
:101E40000010024010B586B0002417480094019499
:101E50000294039404944FF080410594016041F68C
:101E60001F41C0E9011440F2E731C0E90314846165
:101E7000FFF751F908B1FEF755FC4FF48050009080
:101E800069460948FFF78FF908B1FEF74BFC049447
:101E900004A905480594FFF71DF9002801D0FEF7B5
:101EA00041FC06B010BD0000240000200C4810B515
:101EB0000A4901604FF4E1314160002181600C2248
:101EC000C160C0E904128161C161FFF73FFB0028D6
:101ED00003D0BDE81040FEF725BC10BD003801401E
:101EE000C40900200C4810B50A4901604FF4E131E3
:101EF0004160002181600C22C160C0E9041281614F
:101F0000C161FFF723FB002803D0BDE81040FEF7B6
:101F100009BC10BD00480040040A0020FEE77047DD
:101F200070477047FEF7ACBD30B58FB028216846CA
:101F3000FEF743F914210AA8FEF73FF9012108042E
:101F4000CDE900100024029402250491CDE9075048
:101F50004FF4E01009906846FEF716FF0F20CDE918
:101F60000A056802CDE90C4002210AA80E94FEF78A
:101F70001FFE0FB030BD00000D48016841F00101A7
:101F8000016041680B4A1140416001680A4A1140F2
:101F90000160016821F480210160416821F4FE01A3
:101FA00041604FF41F0181600449C003086070471D
:101FB000001002400000FFF8FFFFF6FE08ED00E011
:101FC0000148FFF75CB9000024000020F0B502686A
:101FD0001C4B1D4D1D4E1E4F1E4C4FF0804C984209
:101FE00009D0A04207D0604505D0A84203D0B04236
:101FF00001D0B84204D122F0700E4A6842EA0E02C3
:10200000984209D0A04207D0604505D0A84203D02D
:10201000B04201D0B84203D122F44075CA682A43C5
:102020004D6922F080022A4302608A68C2620A680F
:102030008262984201D0A04201D109690163012165
:102040004161F0BD002C0140000400400008004048
:10205000000C00400034014010B5846842EA0322BD
:1020600024F47F440A432243826010BD826822F038
:1020700070020A4342F007018160704710B5036A9D
:10208000046A24F001040462846924F0F00444EA40
:10209000021423F00A020A438461026210BD10B5E3
:1020A000036A23F0100303628369046A23F4704314
:1020B00043EA023224F0A00343EA01118261016283
:1020C00010BD10B5406A0021C185C184FFF7B5F984
:1020D00010BD0168CA6822F49072CA6001684A693A
:1020E00022F001024A61202180F83A10704710B5B1
:1020F00090F83A10222901D0022010BD8168B1F574
:10210000805F11D00169002901681FD0496801F082
:102110007F03816A4A1C82620B70C18D491E0904CB
:10212000090CC18518D02BE00269816A002A026877
:10213000526805D0D2B20A80816A491C8162ECE7FC
:10214000C2F308020A80816A891CF7E74A68816A3B
:102150004B1C83620A70E0E70168CA6822F0200223
:10216000CA600168CA6822F48072CA6001684A695C
:1021700022F001024A61202180F83A10FFF7D6FAD6
:10218000002010BD2DE9F041044600680169E268B5
:1021900021F44051114301612169A068084361693C
:1021A00008432168CA6841F20C639A430243CA603B
:1021B00020684169A26921F44071114341611E49BF
:1021C000206864253226884202D1FEF797FD01E09F
:1021D000FEF784FD00EBC00101EB001160686FF0B9
:1021E00018078000B1FBF0F2B2FBF5F2B1FBF0F39F
:1021F0007A4303EB8202B1FBF0F306EB0212B2FB6F
:10220000F5F2B3FBF5F302F0F00202EB0312B1FBBF
:10221000F0F3B1FBF0F0B0FBF5F0784303EB800096
:1022200006EB0010B0FBF5F0216800F00F00104441
:102230008860BDE8F08100000038014090F8391056
:10224000212901D0022070478168B1F5805F016AC1
:102250000BD04A1C0262026809785160C18C491E89
:102260000904090CC1840ED017E009880268C1F383
:102270000801516001690029016A02D0491C01620C
:10228000ECE7891CFBE70168CA6822F08002CA609B
:102290000068C16841F04001C160002070472DE92D
:1022A000F041984617460E460446069D1DE0681C00
:1022B0001BD02DB1FEF7DEFBA0EB0800A84214D91D
:1022C0002068C16821F4D071C1602068416921F0A3
:1022D00001014161202084F8390084F83A0000208F
:1022E00084F838000320BDE8F0812068006836EAF1
:1022F000000004D00020B842D9D00020F3E701202C
:10230000F9E700000148FFF799B80000C409002070
:1023100010B50548FFF792F8BDE8104001220349C7
:102320000148FFF7D9B90000040A0020000000208E
:10233000FEE700000FB4084B10B504A902AA0398E9
:1023400000F0F0F8044602A9002000F082FC2046CC
:1023500010BC5DF814FB0000532C000837B5144680
:102360000846064B6A46214600F0DCF804466946FA
:10237000002000F06EFC20463EBD0000532C0008FB
:102380000907090E002804DB00F1E02080F80014A2
:10239000704700F00F0000F1E02080F8141D704736
:1023A00002E008C8121F08C1002AFAD1704770471E
:1023B000002001E001C1121F002AFBD1704700007C
:1023C0002DE9FF5FDDE90220010DDDF838B00243A1
:1023D00018D044F61050A1F2FF3141430D140F986C
:1023E000012820D0A5EB0B00401C5FEA000A4FF04B
:1023F0000004474EDFF81C91A046504616D5CAF19E
:10240000000728E00F98012443A2012808D00021EA
:1024100000980F9BC0E90021C0E90243BDE8FF9F7F
:102420006FEA0B01F4E7CBF10000DEE7074612E0AC
:10243000F80707D02246334640464946FDF7CFFF0E
:10244000804689462246334610461946FDF7C7FFA7
:1024500004460E467F10002FEAD1DDE90201BAF1F1
:10246000000F42464B4602DAFDF7B9FF01E0FEF7E6
:1024700028F804460E460022284BFEF7A9F803D898
:102480004FF0FF30014607E00022254B2046314641
:10249000FDF7FEFEFEF784F8102409E0002C0ADBAD
:1024A0000A220023FDF7C3FE019B30321A55641E39
:1024B00050EA0102F2D1641C019AC4F111031444E0
:1024C0000F9A012A03D0012208430DD10AE00843E4
:1024D00004D000204FF0110B0F9080E7A3EB0B0509
:1024E0006D1E0DE05B4504DD4FF0000205F10105B6
:1024F00004E003DA4FF00002A5F10105002AECD058
:1025000000980F99C0E90231C0E9004586E7000054
:10251000000024400000F03F300000000000F043C5
:102520000000E03F2DE9FF4F95B09B4689460646E7
:1025300000250FE2252877D100242746F84A0121FB
:10254000059400E0044316F8013F203B01FA03F034
:102550001042F7D130782A2811D06FF02F0330784D
:10256000A0F13002092A16D8059A44F0020402EBC1
:10257000820203EB42021044761C0590EFE759F803
:10258000042B0592002A03DA504244F400540590CB
:1025900044F00204761C30782E2816D116F8010F6C
:1025A00044F004042A280DD06FF02F023078A0F1F7
:1025B0003003092B09D807EB870302EB4303C71845
:1025C000761CF3E759F8047B761C30786C280FD022
:1025D00006DC4C2817D068280DD06A2814D104E0F6
:1025E000742810D07A280FD10DE044F400140AE0CA
:1025F00044F4801401E044F440147278824202D121
:1026000004F58014761C761C307866280BD013DC19
:10261000582877D009DC002875D04528F6D0462800
:10262000F4D047281AD19DE118E0632835D06428FA
:1026300079D0652812D195E1702873D008DC67281D
:10264000F1D069286FD06E280DD06F2806D1B5E083
:1026500073282CD0752875D0782874D05A461799CD
:1026600090476D1C75E1C4F30250022809D003287D
:102670000DD0D9F8001004280DD00D6009F104091F
:1026800067E1D9F80010EA17C1E90052F6E7D9F876
:1026900000100D80F2E70D70F0E719F8041B8DF8BB
:1026A000001000208DF80100EA46012003E059F8EF
:1026B00004AB4FF0FF3061074FF0000102D40DE092
:1026C00008F101018846B9420FDA8045F8DB1AF8B3
:1026D00008100029F4D108E008F101018846814280
:1026E000FADB1AF808100029F6D105985B46A0EB32
:1026F000080721463846179A00F094FA284400EB60
:10270000080507E04DE029E10DE01AF8010B5A46F3
:1027100017999047B8F10108F7D25B462146384631
:10272000179A13E142E00A220092C4F302524FF0DA
:10273000000A022A08D059F804CB032A4FEAEC71A8
:102740000AD00DE029E02AE009F1070121F0070293
:10275000F2E802C1914609E00FFA8CFC4FEAEC71F5
:10276000042A03D14FFA8CFC4FEAEC71002907DAF6
:102770000A460021DCF1000C61EB02012D2202E08F
:10278000220504D52B228DF80420012203E0E20764
:1027900001D02022F7E7904659E00A2102E01022FA
:1027A0000DE010214FF0000A00910BE010224FF0D5
:1027B000000A44F004040827009203E008224FF0C6
:1027C000000A0092C4F30252022A05D059F804CB41
:1027D0000021032A08D009E009F1070121F00702CE
:1027E000F2E802C1914605E01FFA8CFC042A01D1EF
:1027F0000CF0FF0C4FF00008220728D5702806D0F7
:10280000009B83F0100353EA0A0305D00EE0402238
:102810008DF80420012208E05CEA010206D0302293
:102820008DF804208DF8050002229046009B83F06D
:10283000080353EA0A030AD15CEA010201D16207E4
:1028400005D530228DF804204FF001087F1E58284E
:1028500004D034A003900EA802900DE036A0F9E752
:1028600053466046009AFDF7E2FC84460398825C7A
:102870000298401E029002705CEA0100F0D10298BA
:1028800006A9081A00F1200A600702D524F4803452
:1028900000E00127574502DDA7EB0A0000E0002019
:1028A00000EB0A01009005984144401A0590E003AE
:1028B00006D45B462146179A059800F0B3F9054403
:1028C000002706E001A85A46C05D179990476D1C85
:1028D0007F1C4745F6DBE0030CD55B462146179A83
:1028E000059800F09FF9054404E030205A461799F6
:1028F00090476D1C0099481E00900029F5DC08E007
:10290000029802995A460078491C029117999047FB
:102910006D1CBAF10001AAF1010AF1DC65E10000C9
:1029200009280100303132333435363738396162A5
:102930006364656600000000303132333435363769
:1029400038394142434445460000000000F058F940
:102950000544761C307800287FF4ECAD19B0284689
:10296000BDE8F08F620700D4062709F1070222F0C4
:10297000070CFCE80223E14603F000485FEA080C7C
:1029800002D00FF2702C0DE05FEA045C02D50FF26A
:10299000682C07E05FEAC47C02D00FF2602C01E0F3
:1029A000AFF2700C4FF0FF3823F00043CDF850C069
:1029B00065280CD006DC452809D046281DD04728BC
:1029C0003DD13DE0662818D067287ED138E000214F
:1029D000112F01DB112000E0781CCDE9000106A9D0
:1029E0000EA8FFF7EDFCDDE90F010E9A039100211F
:1029F000009207F1010A04914DE04FF0004000976A
:102A0000CDE9011006A90EA8FFF7DAFCDDE90F02F7
:102A100003920E9B11990022DDF80CA00093049202
:102A200011B9791C00EB010AB7EB0A0004D4C0F11C
:102A3000FF3007F1010A0490AAEB0700019044E07F
:102A4000012F00DA01270021112F01DD112000E004
:102A50003846CDE9000106A90EA8FFF7B1FCDDE973
:102A60000F010E9A0391002104910092BA462107AA
:102A70000CD40399514500DA8A46BAF1010F05DDFD
:102A8000009AAAF10101515C302908D0B84202DA5B
:102A900010F1040F06DA0121CDE9011015E0AAF1C9
:102AA0000101E9E7002805DC049901440491AAEB3F
:102AB000000102E0411C514500DD8A460499401A9C
:102AC000401C01904FF000400290200704D4019870
:102AD000504501DBCDF8048000208DF84F000298AE
:102AE0000DF14F07B0F1004F25D02B200E9002982A
:102AF0004FF0020800280CDA404202902D200E9080
:102B000007E00A210298FDF77CFB3031029007F8BC
:102B1000011DB8F10001A8F10108F2DC02980028BB
:102B2000EFD1791E0E980870307800F0200040F048
:102B3000450007F8020D12A8C01B00F10708149801
:102B4000007800B1012000EB0A01019801EBE0716F
:102B500005984144401A401E0590E00306D45B46A8
:102B60002146179A059800F05DF8054414980078FE
:102B700018B15A46179990476D1CE00324D55B465F
:102B80002146179A059800F04DF805441CE004987A
:102B9000002807DBDDE90301884203DD0098405C83
:102BA000179901E0179930205A469047049805F18B
:102BB0000105401C04900198401E019004D12E2074
:102BC0005A46179990476D1CBAF10001AAF1010A03
:102BD000DDDC05E017F8010B5A46179990476D1C8C
:102BE000B8F10001A8F10108F4DC5B462146179A10
:102BF0000598ABE62D0000002B000000200000002F
:102C00002DE9F041044600251E461746880404D4E9
:102C100005E039462020B0476D1C641EF9D52846D2
:102C2000BDE8F0812DE9F041044600251E4690469E
:102C3000C80301D5302700E02027880404D505E02B
:102C400041463846B0476D1C641EF9D52846BDE89C
:102C5000F0810A68531C0B601070704730B5044651
:102C600006480023026803E012F8015B25705B1C34
:102C70008B42F9DB0260084630BD000014000020E2
:102C800070B50A24322000F05BFC064610A314A2A3
:102C900017A1FFF74FFB4FF47A7504E019A000F07D
:102CA000B9FC641EE4B22A461DA1304600F0A6FB22
:102CB00028B1002CF2D1304600F0DCFB05E03046B4
:102CC00000F0D8FB0CB1002070BD012070BD0000E9
:102CD00070617373776F72643036303600000000B5
:102CE0005A68616E67205A656E672054616F0000F4
:102CF00041542B43574A41503D222573222C222513
:102D000073220000C1B4BDD34150CAA7B0DCA3AC4C
:102D1000B3A2CAD4D6D8D0C2C1ACBDD30D0A00006C
:102D20005749464920474F542049500010B577A0D5
:102D300000F070FC6420FDF78FFD322277A178A0AF
:102D400000F05CFB77A000F065FC00F02FFB08B101
:102D500079A0B8E080A000F05DFC84A000F05AFCEF
:102D600032226EA185A000F049FB08B185A01AE0CF
:102D70008AA000F04FFC8DA000F04CFC322267A12D
:102D800067A000F03BFB08B18DA00CE092A000F022
:102D900041FC96A000F03EFC322260A198A000F019
:102DA0002DFB20B199A000F035FC012010BD9EA0A4
:102DB00000F030FC76A000F02DFC322257A19FA03D
:102DC00000F01CFB20B19FA000F024FC022010BDED
:102DD000A2A000F01FFC4FF47A742046FDF73CFDE2
:102DE0002046FDF739FD2046FDF736FD2046FDF76C
:102DF00033FDA0A000F00EFC322248A1A2A000F0FA
:102E0000FDFA20B1A4A000F005FC032010BDAAA08B
:102E100000F000FCADA000F0FDFBFFF731FF20B19A
:102E2000AFA000F0F7FB042010BDB4A000F0F2FB4F
:102E30002046FDF711FD2046FDF70EFD2046FDF76B
:102E40000BFDB3A000F0E6FB642234A1B4A000F0B7
:102E5000D5FA08B1B6A00CE0BCA000F0DBFBBFA027
:102E600000F0D8FB64222DA1C2A000F0C7FA20B167
:102E7000C3A000F0CFFB072010BDC9A000F0CAFB23
:102E8000CDA000F0C7FB00F00BFA20B1CFA000F0FE
:102E9000C1FB082010BDD4A000F0BCFB21A000F0B5
:102EA000B9FB00F083FA00287FF452AF2AA000F0AB
:102EB000B1FBD2A000F0AEFB322218A1D4A000F0EA
:102EC0009DFA20B1D6A000F0A5FB062010BDDBA026
:102ED00000F0A0FBDDA000F09DFB22460FA1E0A0CA
:102EE00000F08CFA20B1E1A000F094FB092010BDA5
:102EF000E5A000F08FFBE849002008804FF44871FE
:102F0000E648FDF75AF9002010BD0000D7BCB1B863
:102F1000C5E4D6C3C4A3BFE90D0A00004F4B0000AF
:102F200041540000D7BCB1B8CDCBB3F6CDB8B4ABEB
:102F3000C4A3CABD0A000000CDCBB3F6CDB8B4AB74
:102F4000C4A3CABDCAA7B0DCA3ACD7BCB1B8D6D89D
:102F5000C6F40D0A00000000CDCBB3F6CDB8B4AB7B
:102F6000C4A3CABDB3C9B9A60D0A0000D7BCB1B885
:102F7000B9D8B1D5BBD8CFD40D0A000041544530E3
:102F800000000000B9D8B1D5BBD8CFD4CAA7B0DCF7
:102F9000D7BCB1B8D6D8C6F40D0A0000B9D8B1D59F
:102FA000BBD8CFD4B3C9B9A60D0A0000B2E9D1AFDE
:102FB000C4A3BFE9CAC7B7F1D4DACFDF0D0A000056
:102FC000C4A3BFE9B2BBD4DACFDFD7BCB1B8D6D87F
:102FD000C6F40D0A00000000C9E8D6C3B2E9D1AFBB
:102FE000D4DACFDFB3C9B9A60D0A0000D7BCB1B897
:102FF000C9E8D6C3535441C4A3CABD0D0A0000009A
:1030000041542B43574D4F44453D3100C9E8D6C389
:10301000535441C4A3CABDCAA7B0DCD7BCB1B8D60B
:10302000D8C6F40D0A000000C9E8D6C3535441C401
:10303000A3CABDB3C9B9A60D0A00000041542B5262
:1030400053540000D6D8C6F4CAA7B0DCA3ACD7BC92
:10305000B1B8D6D8C6F40D0A00000000D6D8C6F420
:10306000B3C9B9A6A3ACB5C8B4FDC8FDC3EB0D0A7E
:1030700000000000D7BCB1B8C8A1CFFBD7D4B6AF11
:10308000C1ACBDD30D0A000041542B4357415554E8
:103090004F434F4E4E3D3000C8A1CFFBD7D4B6AF03
:1030A000C1ACBDD3CAA7B0DCA3ACD7BCB1B8D6D82D
:1030B000C6F40D0A00000000C8A1CFFBD7D4B6AFFC
:1030C000C1ACBDD3B3C9B9A60D0A0000D7BCB1B815
:1030D000C1B4BDD3C2B7D3C9C6F70D0A0000000002
:1030E000C1ACBDD3C2B7D3C9C6F7CAA7B0DCA3ACC5
:1030F000B5C8B4FDD6D8C6F40D0A0000C1ACBDD326
:10310000C2B7D3C9C6F7B3C9B9A60D0A00000000FB
:10311000D7BCB1B8BFAAC6F4444843500D0A00005A
:1031200041542B4357444843503D312C310000005B
:10313000BFAAC6F444484350CAA7B0DCA3ACD7BC6E
:10314000B1B8D6D8C6F40D0A00000000C9E8D6C34D
:1031500044484350B3C9B9A60D0A0000C9E8D6C314
:10316000CEAAB9D8B1D5B6E0C2B7C1ACBDD30D0AAD
:103170000000000041542B4349504D55583D30004C
:10318000B9D8B1D5B6E0C2B7C1ACBDD3CAA7B0DC1F
:10319000A3ACD7BCB1B8D6D8C6F40D0A0000000065
:1031A000C9E8D6C3B9D8B1D5B6E0C2B7C1ACBDD3B2
:1031B000B3C9B9A60D0A0000D7BCB1B8C1B4BDD31C
:1031C000B7FECEF1C6F70D0A00000000C1ACBDD3BA
:1031D000B7FECEF1C6F7CAA7B0DCA3ACB5C8B4FD44
:1031E000D6D8C6F40D0A0000C1ACBDD3B7FECEF1EF
:1031F000C6F7B3C9B9A60D0A00000000C9E8D6C3D6
:10320000CEAACDB8B4ABC4A3CABD0D0A000000005D
:1032100041542B4349504D4F44453D31000000007F
:10322000C9E8D6C3CDB8B4ABCAA7B0DCA3ACD7BC91
:10323000B1B8D6D8C6F40D0A00000000C9E8D6C35C
:10324000CDB8B4ABB3C9B9A60D0A0000C9E8D6C35E
:10325000BFAAC6F4CDB8B4ABC4A3CABD0D0A000062
:1032600041542B43495053454E440000BFAAC6F475
:10327000CDB8B4ABCAA7B0DCA3ACD7BCB1B8D6D874
:10328000C6F40D0A00000000BFAAC6F4CDB8B4AB66
:10329000B3C9B9A60D0A0000020000206400002096
:1032A00070B50A24322000F04BF9064610A312A292
:1032B0001EA1FFF73FF84FF47A7504E022A000F05A
:1032C000A9F9641EE4B22A4627A1304600F096F818
:1032D00028B1002CF2D1304600F0CCF805E03046A1
:1032E00000F0C8F80CB1002070BD012070BD0000D6
:1032F000313838330000000061317730584A625865
:103300007768302E696F742D61732D6D7174742E12
:10331000636E2D7368616E676861692E616C69798F
:10332000756E63732E636F6D0000000041542B4374
:10333000495053544152543D22544350222C22258B
:1033400073222C2573000000C1B4BDD3B7FECEF1AB
:10335000C6F7CAA7B0DCA3ACB3A2CAD4D6D8D0C231
:10336000C1ACBDD30D0A0000434F4E4E454354003F
:1033700010B50A490446002009880A040DD5084AF8
:10338000C1F30E015054114606A000F043F9214646
:10339000BDE810400248FCF71BBF10BD0200002032
:1033A0006400002025730D0A0000000070B5104C69
:1033B00020684006FCD50E4E2B25361D35600F20AB
:1033C000FDF74AFA20684006FCD535600F20FDF76E
:1033D00043FA20684006FCD535604FF4FA70FDF7DB
:1033E0003BFABDE87040142202A103A000F006B829
:1033F000004800404F4B0000415400002DE9F047C9
:10340000154D002689468046144637462E804FF4D7
:1034100048711248FCF7D1FE414611A000F01AF99C
:103420008CB915E00A20FDF717FA288800040AD5A0
:103430004846FFF79DFF28B149460BA000F0EAF887
:103440002CB105E02F80641E2404240CEAD101264F
:103450003046BDE8F0870000020000206400002034
:1034600025730D0A0000000061636B3A25730D0A95
:103470000000000010B5002821D0114B0022001FD1
:10348000196803E0814203D80A4649680029F9D146
:1034900052B11368841A9C4204D100681844106029
:1034A000104602E0506000E0186039B102680B1A63
:1034B000934203D10B681A4402604968416010BD11
:1034C0001C000020FDF7E4FAFEF72EFDFEF79CFC41
:1034D000FEF7B8FCFEF7EAFCFEF704FD01221249F4
:1034E0001248FEF7F9F81248FDF74CFE11A000F063
:1034F00091F84FF47A742046FDF7AEF92046FDF7B7
:10350000ABF92046FDF7A8F9FFF710FC0028FBD126
:10351000FEF794F90028FBD140F6B834FEF7B2FA72
:103520002046FDF799F9F9E700000020040A002081
:1035300024000020BFAACABCC5E4D6C30000000016
:10354000F0B50B30154D20F007010024144A0FE0B0
:1035500003688B420BD38B4205D95E1A4318476828
:10356000C3E9006700E04368136002C004E0021D85
:1035700010680028ECD12046002802D1286808B144
:103580000020F0BD064A07481060074A121A22F0D0
:103590000702C0E9002401202860D7E720000020AE
:1035A0001C000020940C002090140020016811F8E9
:1035B000012B01601046704710B50C460A460649BB
:1035C000FCF7E2FD054B00204FF4487118800248DB
:1035D000FCF7F3FD204610BD64000020020000202F
:1035E00070B50D4608490020144608804FF4487114
:1035F0000648FCF7E2FDA2B24FF47A73294604486C
:10360000FEF7BCF8204670BD0200002064000020D8
:10361000040A00200FB40D4870B505AA0499FEF7FE
:103620009DFE0A48FCF7E6FDC1B2094A0020074B9F
:10363000141D06E015686D06FCD51D5C2560401C58
:10364000C0B28842F6D370BC5DF814FBA40600201B
:10365000003801400FB40D4870B505AA0499FEF773
:103660007DFE0A48FCF7C6FDC1B2094A0020074B9F
:10367000141D06E015686D06FCD51D5C2560401C18
:10368000C0B28842F6D370BC5DF814FB84030020FE
:103690000048004000F00F000A2801D2303000E05E
:1036A000573040B270472DE9F041BCB01E46429FF2
:1036B0001546884604005ED0002D5CD0002E5AD0FE
:1036C000402F58DC402117A8FCF777FD402127A8A0
:1036D000FCF773FD3A46314617A8FCF755FD3A460C
:1036E000314627A8FCF750FD002117A827AA435C04
:1036F00083F036034354535C83F05C035354491CFA
:103700004029F4DB684600F0A5F8684601F0C6F9E8
:10371000402217A9684601F0D7F94246214668467B
:1037200001F0D2F937A9684600F028F8684600F0A1
:1037300091F8684601F0B2F9402227A9684601F0E5
:10374000C3F9142237A9684601F0BEF937A96846C3
:1037500000F014F8002437AE305D0009FFF79AFF3F
:1037600005F81400305DFFF795FF05EB4401641C7C
:103770004870142CF0DB3CB0BDE8F0817CB50D4600
:10378000044601686268480F40EAC200020E8DF8E4
:103790000020020C8DF80120020A8DF80220C900D9
:1037A0008DF80300080E8DF80400080C8DF8050054
:1037B000080A8DF806008DF80710207800F03F0009
:1037C000382802D2C0F1380201E0C0F17802204965
:1037D000204601F079F908226946204601F074F983
:1037E000A068000E2870A068000C68702089000A8C
:1037F000A870207AE870E068000E2871E068000C7C
:103800006871A089000AA871207BE8712069000E08
:1038100028722069000C6872208A000AA872207C35
:10382000E8726069000E28736069000C6873A08AF2
:10383000000AA873207DE873A069000E2874A069AF
:10384000000C6874208B000AA874207EE8747CBD8C
:10385000304C00085C21FCF7B0BC00002DE9F04FB3
:103860000A689BB012BA22F0FF0CCA784CEA020C2C
:10387000CDF864C04A6812BA22F0FF06CA7916432E
:1038800016968A6812BA22F0FF06CA7A164315966F
:10389000CA6812BA22F0FF0CCA7B4CEA020CCDF8BF
:1038A00050C00A6912BA22F0FF06CA7C16430E966F
:1038B0004A6912BA22F0FF0CCA7D4CEA020CCDF81C
:1038C00034C08A6912BA22F0FF06CA7E16430C96EB
:1038D000CA6912BA22F0FF05CA7F15430A950A6A1F
:1038E00012BA22F0FF0691F8232046EA020E4A6A35
:1038F00012BA22F0FF0691F82720164308968A6A2A
:1039000012BA22F0FF0691F82B2016430796CA6AD6
:1039100012BA22F0FF0791F82F2017430A6B12BA50
:1039200022F0FF0591F8332091F8373045EA020A7A
:103930004A6B91F83B4012BA22F0FF021A438B6B9C
:10394000D0F808C01BBA23F0FF032343CC6B91F8D7
:103950003F10CDF84CC0C668129603960569E34641
:10396000119524BAD0F814C024F0FF040C43CDF80C
:1039700060C081690B91884685EA0C013140E146BF
:1039800081EA0C01DDF864C001EBFB660CEB080179
:103990000E44FE4906EB0108039ECDF800804FEA75
:1039A000B60603966E4006EA0B066E4006EBF86814
:1039B000169E4FEABB0B4E44464406EB0108CDF879
:1039C0000480039EDDF800808BEA060C0CEA080CEC
:1039D0008CEA060CDDF80480159E0CEBF86C35447F
:1039E000DDF8008065444FEAB809DDF8048089EA13
:1039F0000B0605EB010C06EA080686EA0B0606EB49
:103A0000FC65CDF808C0DDF850C0039E664435441F
:103A100005EB010CCDF80CC04FEAB805DDF808C085
:103A200085EA090808EA0C08DDF80CC088EA0908EC
:103A30000E9E08EBFC685E44464406EB0108DDF888
:103A400008C0CDF810804FEABC060296DDF80CC025
:103A50006E4006EA0C066E40DDF834C006EBF868EE
:103A60000CEB090646440E440096DDF80CC0029E9D
:103A70004FEABC0BDDF810808BEA060C0CEA080C50
:103A80008CEA060C009E4FEAB8090CEBF66C0C9E13
:103A900089EA0B083544009E654405EB010C08EAF1
:103AA0000608029E0A9DCDF804C088EA0B0835443A
:103AB00008EBFC6C654405EB010C009ECDF808C0DA
:103AC0004FEAB605DDF804C085EA090606EA0C06E9
:103AD000DDF808C086EA090606EBFC680EEB0B066B
:103AE0004644DDF804C006EB010B4FEABC06019624
:103AF000DDF808C06E4006EA0C066E4006EBFB6C73
:103B0000089E4E44664406EB0108DDF808C0019E9D
:103B10004FEABC0989EA060C0CEA0B0C8CEA060C8D
:103B2000079E4FEABB0B35440CEBF86C8BEA090699
:103B3000654406EA080605EB010C86EA090606EB71
:103B4000FC65019ECDF810803E4435446E184FEA66
:103B5000B805049585EA0B0505EA0C05019685EA8A
:103B60000B0505EBF6660AEB09053544CDF800C0F8
:103B70006E18DDF800C00296049D4FEABC0C019E51
:103B80008CEA050808EA0608029E88EA050808EBA0
:103B9000F66502EB0B063544019E05EB01094FEA81
:103BA000B60B029E8BEA0C05354085EA0C0505EB49
:103BB000F966049D1D443544029E05EB01084FEA59
:103BC000B606029686EA0B0606EA090686EA0B06A0
:103BD00006EBF86504EB0C0635446E180096DDF82C
:103BE00064C0159ECDF810804FEAB90982EA0E052F
:103BF00086EA0C067540029EDDF8108089EA060C04
:103C00000CEA080C8CEA060C009E4FEAF5750CEBEA
:103C1000F66619952E4406EB0B056E180196089E64
:103C20004FEAB80583EA0608DDF850C0169E8CEA14
:103C3000060C88EA0C0B009E85EA090808EA0608CB
:103C4000019E88EA090808EBF66C4FEAFB76B4445B
:103C50001696029EDDF85480664406EB010B079E23
:103C6000DDF838C066408CEA080C009986EA0C063C
:103C70001A964FEAB101DDF804C081EA050606EAAA
:103C80000C066E4006EBFB681A9E4FEAF67CCDF8F8
:103C900054C0C4443D4ECC44B444019ECDF80CC045
:103CA0004FEAB6060196199EDDF834C0DDF8508063
:103CB0007E408CEA080C86EA0C09019EDDF80CC0F7
:103CC0004E4006EA0B064E4006EBFC684FEAF97CD4
:103CD00008EB0C062E442D4DCDF850C0354404950C
:103CE000DDF838C00C9E169D86EA0C0685EA0A05AA
:103CF00085EA06084FEABB09DDF80CC0019E8CEA94
:103D0000090C049D8CEA060C0CEBF5664FEAF87B77
:103D100006EB0B050D441E49DDF80CC06E184FEA8A
:103D2000BC080096CDF80C80DDF854C00D9E0A9DAD
:103D30008CEA020C75408CEA050C049D009E85EA15
:103D4000080585EA090505EBF6654FEAFC7635447A
:103D50000D96019EDDF850C035440D440195049D3B
:103D60000C9E4FEAB5088EEA0605009ECDF810803D
:103D70008CEA030C86EA08068CEA050CDDF80C8058
:103D8000019D86EA080606EBF56503E09979825AFB
:103D9000A1EBD96E4FEAFC7635444D4405EB0109A1
:103DA000CDF808900C96009E089D4FEAB60CCDF811
:103DB00000C00A9E8BEA0408754088EA0506019D4A
:103DC000DDF8108085EA0C0585EA08054FEAF676ED
:103DD00005EBF965DDF80C803544454405EB010C35
:103DE000019D0A964FEAB508CDF80CC0DDF800C079
:103DF0000D9E199D89EA080989EA0C096E40DDF8D3
:103E00000CC0079D09EBFC6C85EA0E056E40CDF8F1
:103E100004804FEAF675DDF808900CEB0506DDF836
:103E200010804FEAB9094644CDF8089006EB010826
:103E3000DDF858C00C9ECDF8108086EA0C06DDF83F
:103E400020C0DDF8048087EA0C0C86EA0C06DDF859
:103E50000CC04FEAF67E8CEA090C8CEA080CDDF8FF
:103E600010800CEBF86C0CEB0E06DDF800C0DDF8F2
:103E70001C80664406EB010CCDF800C0DDF80CC0D8
:103E80000A9E4FEABC09DDF854C0CDF80C9086EAD2
:103E90000C068AEA080CDDF8108086EA0C0688EA2F
:103EA0000908DDF80890DDF800C088EA090808EB89
:103EB000FC6C4FEAF6780CEB0806CDF81C80DDF8B8
:103EC0000480DDF850C0464406EB0108CDF80480BC
:103ED000DDF8108085EA0C064FEAB809DDF800C06D
:103EE000CDF810908CEA090C5740DDF80C907E401C
:103EF0008CEA090CDDF804804FEAF6770CEBF86CDD
:103F00000CEB0706DDF80890DDF800C04E4406977C
:103F100077184FEABC09029788EA0908CDF80090A3
:103F20008EEA0B0683EA0A07DDF810907E4088EAE5
:103F30000908029F4FEAF67A08EBF76CDDF80C905F
:103F40000CEB0A064E44DDF8048006EB010C4FEA48
:103F5000B8060196DDF81C800D9E624088EA0608CE
:103F6000DDE90167DDF80090774087EA090788EA14
:103F7000020807EBFC664FEAF872029F1792324480
:103F80004FEAB708069F0C9EDDF8109077404A4430
:103F9000199E0A445E407740019E8CEA08037340F4
:103FA00003EBF2664FEAF773109333444FEABC0613
:103FB00003960A9EDDF800908AEA0607169E4B4497
:103FC00066407740039E0B4482EA060484EA0804B4
:103FD00004EBF3664FEAF7740F943444019E4FEA02
:103FE000B20734440C440194DDF854C0199C179A6C
:103FF0008CEA040C6A4082EA0C0283EA070C039EF6
:10400000019C8CEA060C0CEBF4664FEAF274321950
:104010004244199456184FEAB3090296109BDDF8F2
:1040200050C0169A019C83EA0E038CEA020C83EAC4
:104030000C0384EA09047C404FEAF37204EBF66453
:1040400016922244019CDDF81C804FEAB40CCDF896
:1040500004C00F9C039EDDF854C084EA0804324477
:104060008BEA0C08DDE901C60A4484EA080486EA02
:104070000C0686EA09064FEAF47406EBF263234461
:104080003B445E180496029E15944FEAB6070297C9
:10409000069F199CDDF850C07C400D9E029F86EA69
:1040A0000C06744082EA0703DDF804C0049E83EA2C
:1040B0000C0303EBF6664FEAF473149333444FEAB0
:1040C000B204169A0C9E82EA0A0286EA0B06724035
:1040D000049E029F4B4466400B447E404FEAF272BE
:1040E00006EBF3660E92324462445618049A179F08
:1040F0004FEAB208159ADDF834C07A400A9F87EA81
:104100000C077A4083EA080767404FEAF27207EB30
:10411000F66717440D92029A3A4402EB010B4FEAFC
:10412000B3070097149A109986EA07034A400C993E
:1041300083EA080369404A4003EBFB614FEAF272ED
:1041400011440C920A19FE490A9C5318DDE90E210C
:104150004A408EEA04014A404FEAB609009F8BEAC2
:104160000901794001EBF3614FEAF274214401EB5C
:104170000802F3490A9454180D9A19994FEABB069C
:104180004A400799009F69404A4043EA060503EA0E
:10419000060105EA090529434FEAF27501EBF461CE
:1041A0002944CA19E749099555184FEAB307169BE0
:1041B0000C9A44EA070C5A40069B0CEA060C83EA68
:1041C0000E035A4004EA070343EA0C034FEAF27273
:1041D00003EBF56308921A444FEAB40C0A9C159B52
:1041E000DDF81C805C408AEA08035C4045EA0C0864
:1041F0004A4405EA0C0308EA07080A4443EA0803AC
:104200004FEAF47403EBF2632344334407945C18DD
:104210004FEAB509099D149B069E5D40179B4FEA26
:10422000B20B73405D4042EA090602EA090306EA5E
:104230000C06334303EBF4664FEAF573F5180E9E54
:10424000089A3D447240109E44EA0B0786EA0A062B
:10425000724004EA0B0607EA09073E430D444FEAA1
:10426000F27206EBF56605923244624456184FEA44
:10427000B407079C0D9ADDF85CC054400F9A82EA9F
:104280000C02544045EA070C05EA07020CEA0B0C45
:1042900042EA0C0202EBF66C4FEAF47217926244A7
:1042A0004A4402EB010C0C9A4FEAB50983EA020476
:1042B000109D199A6A40544046EA090506EA090227
:1042C0003D402A434FEAF47E02EBFC6272445A44BA
:1042D00002EB01080A9C059A0F9D6240169C4FEA6A
:1042E000B60B6C4062404CEA0B050CEA0B0405EA85
:1042F00009052C434FEAF27204EBF8640F92224452
:104300003A445418099D179A199E6A40159D4FEA20
:10431000BC07754082EA050C48EA070508EA07026F
:1043200005EA0B052A434FEAFC7A02EBF46505EB3C
:104330000A024A445518089A4FEAB80CCDF864A00E
:104340008EEA0208169E149A8AEA030A724088EAE4
:10435000020844EA0C0604EA0C023E4032434FEAEB
:10436000F87602EBF56232445A44169656184FEA34
:10437000B40B079C0F9ADDF8548062400E9C84EACF
:104380000804624045EA0B0405EA0B0804EA0C0441
:1043900048EA040808EBF6644FEAF27904EB0902F4
:1043A0003A445418149F0D9A4FEAB5057A408AEAA8
:1043B000020A46EA050706EA050207EA0B073A433E
:1043C000CDF8549002EBF4674FEAFA7214923A4433
:1043D000624457184FEAB608169E059ADDF838C0B1
:1043E00056400C9ADDF8549082EA0C02564044EA9A
:1043F000080204EA080C2A404CEA020C4FEAF6765E
:104400000CEBF76232445A440E965618179A4FEA4C
:10441000B40A89EA02090A9C0D9ADFF828B15440CF
:1044200089EA040947EA0A0407EA0A0204EA0804D6
:1044300022434FEAF97402EBF66222442A445518EB
:104440000D940C9C099A1499624081EA0E0181EA4C
:10445000020C4FEAB70746EA070206EA070102EA3A
:104460000A0211434FEAFC7C01EBF56202EB0C01FE
:1044700001EB08024FEAB604DDE90E61CDF830C069
:104480004E40DDF828C008995A4481EA0C014E409C
:1044900045EA040C05EA04010CEA070C41EA0C01A8
:1044A0004FEAF67601EBF2610A960E44564406EBAB
:1044B0000B01DDF864C00D9EDDF8248086EA0C0651
:1044C000DDF81CC04FEAB5058CEA080C86EA0C063C
:1044D00042EA050802EA050C08EA04084CEA080C5E
:1044E0004FEAF6760CEBF16C099666444FEAB20996
:1044F000DDF830C0169A37448CEA020C089A41EA7B
:1045000009065A408CEA020C07EB0B0801EA090283
:104510002E40324302EBF8664FEAFC721644264402
:1045200006EB0B04159F0A9EDDF81CC07E40059F1C
:104530004FEAB10187EA0C0786EA070A04E00000A7
:10454000A1EBD96EDCBC1B8F48EA010C08EA01071D
:104550000CEA090C47EA0C0707EBF46C4FEAFA7710
:104560000CEB07062E4406EB0B0A099E149D4FEA3E
:10457000B80C6E40179D4FEAB4085D406E4044EAA7
:104580000C0504EA0C030D402B4303EBFA654FEADC
:10459000F6731D4405EB0906B3440E9C059E54407A
:1045A0008EEA06056C408AEA080585EA0C0505EBEB
:1045B000FB654FEAF47425440D44FF49CDF80880AB
:1045C00005EB01080D9ECDF8008087EA0605DDF8B1
:1045D0005C800F9E4FEABA0A86EA08067540DDF84D
:1045E00008808BEA0A0686EA0806DDF800804FEAB2
:1045F000F57506EBF8662E44664406EB010CCDF823
:1046000004C0DDF830C04FEABB0983EA0C06DDF8D0
:1046100064C088EA09088CEA0E0C86EA0C06DDF80C
:1046200004C088EA0A0808EBFC6C4FEAF67EDDF865
:1046300008800CEB0E0646440E44CDF8109002960E
:10464000DDF80080DDF858C04FEAB808CDF80080EA
:104650000A9EDDF83C8066408CEA080C86EA0C0B6A
:10466000DDE9008C8CEA080CDDF81090029E8CEAE3
:10467000090C0CEBF66C4FEAFB7B0CEB0B0656447B
:10468000DDF804C006EB010A4FEABC09099ECDF82B
:10469000049085EA060CDDF86480159E86EA08061B
:1046A0008CEA060C029EDDF8008086EA090686EA9E
:1046B00008064FEAFC7C06EBFA66DDF810906644CB
:1046C000CDF864C04E4406EB010C029ECDF810C03C
:1046D0004FEAB609CDF80890DDF850C0DDF85880F3
:1046E0008EEA02068CEA080C8AEA090886EA0C06B9
:1046F000DDF80490DDF810C088EA090808EBFC6CCE
:104700004FEAF678CDF858800CEB0806DDF800800B
:10471000DDF838C046444FEABA08CDF80C800E44A4
:10472000DDF8548000968BEA07068CEA080C86EACE
:104730000C0ADDE9038CDDF808908CEA080C009E79
:104740008CEA090C0CEBF6684FEAFA7C08EB0C06D5
:10475000CDF854C0DDF80490DDF810C04E4406EBEF
:1047600001094FEABC0ADDF864C0DDF850800D9EF7
:104770008CEA030C86EA08068CEA060C009EDDF83B
:104780000C8086EA0A0686EA0806CDF8049006EB55
:10479000F9664FEAFC78DDF8089046444E440E4432
:1047A000CDF850800296009EDDF858804FEAB60C96
:1047B000CDF800C0DDF830C00E9E88EA04088CEA0F
:1047C000060C88EA0C08DDE900C989EA0C09029E9A
:1047D00089EA0A094FEAF87C09EBF6666644DDF8D7
:1047E0000C80DDF804904644CDF838C006EB010893
:1047F0004FEAB90CCDF80C80CDF804C0DDF854C0F8
:10480000DDF834800A9E8CEA050C86EA08068CEAFC
:104810000609DDE901C686EA0C06DDF800C0DDF810
:104820000C8086EA0C0606EBF8664FEAF9784644F7
:10483000564406EB010C029ECDF810C04FEAB606B6
:104840000296CDF83480DDF85080DDF830C0099E46
:1048500088EA0E0886EA0C0688EA0609DDE902689D
:1048600088EA0608DDF804C04FEAF97688EA0C0801
:10487000DDF810C00C9608EBFC6C6644DDF800C057
:10488000DDF80C80664406EB0109DDF838C00A9EAD
:104890008CEA0B0C56408CEA060A4FEAB808DDF8A1
:1048A00010C0029E8CEA080C8CEA060CCDF80C8035
:1048B0000CEBF9684FEAFA760A96DDF804C0464434
:1048C0006644DDF810C006EB010A4FEABC08CDF8DB
:1048D0001080DDF864C0DDF83480099E88EA0C0899
:1048E0007E4088EA0608CDF86880DDF810805A40DE
:1048F00089EA0806DDF80C804FEAB90986EA08065D
:10490000DDF8688006EBFA6C4FEAF876B444099655
:10491000029E664406EB0108CDF80880DDF8588059
:104920000C9E8AEA090C86EA0806DDF810805640DB
:104930008CEA080CDDF808804FEAF6720CEBF86C94
:1049400008926244DDF80C804FEABA0CCDF804C03E
:104950004244DDF854C00A440A9E674086EA0C06C9
:10496000DDE901C888EA0C087E4088EA090808EBFE
:10497000F26C4FEAF677DDF810800CEB070607972C
:104980004644DDF8088077184FEAB80CDDF850800F
:10499000099E6B4086EA08065E40CDF808C082EAB0
:1049A0000C03DDF804C083EA0C0303EBF76C4FEA59
:1049B000F6730693634401E0D6C162CA4FEAB20AB5
:1049C0008EEA0406DDF838C0089A4B4482EA0C02ED
:1049D00087EA0A047240DDF808C00B4484EA0C043C
:1049E0004FEAB7094FEAF27204EBF36405922244EE
:1049F000DDF83480079FDDF804C087EA08078BEAFA
:104A0000050683EA0904624477400A4484EA0A04FA
:104A100004EBF26404EBF7744FEAB305DDF808C069
:104A20000C9E069B64447340DDF864C082EA050670
:104A30000C448CEA0E0C86EA090683EA0C0306EBAA
:104A4000F46606EBF3734FEAB2070A9E059ADDF8A7
:104A500058807240534484EA07060B4488EA0B08E6
:104A60006E4082EA080206EBF36606EBF2724A44F5
:104A700011444FEAB402139C2144816012991944F5
:104A8000C1601199114401611899394441610B9930
:104A9000294481611BB0BDE8F08F00000021016056
:104AA0004160064981600649C1600449C94301610A
:104AB0000349C94341610349816170470123456747
:104AC00089ABCDEFF0E1D2C32DE9F04114000546EA
:104AD00088462FD0286800F03F062044C6F14007E2
:104AE0002860A04202D26868401C6860B6B1BC422F
:104AF00014D3A8193A461C30FBF746FB05F11C01FC
:104B00002846FEF7ABFEE41BB844002606E041460B
:104B10002846FEF7A3FE08F14008403C402CF6D2A0
:104B2000002C07D0A81922464146BDE8F0411C30B0
:104B3000FBF72ABBBDE8F08170B504460E46084677
:104B4000FBF758FB05460146204600F00FF82A46C1
:104B500031462068FBF718FB20682844206070BDB0
:104B6000026811700168491C0160704710B5CA17CE
:104B7000046801EB12631A0A22700268521C026078
:104B800011700168491C016010BD70B5141E1E46ED
:104B900005460BDD1146FFF7E9FF2246314628683E
:104BA000FBF7F2FA28682044286070BD19B1BDE80F
:104BB0007040FFF7C1BFBDE870400021FFF7D6BFCE
:104BC00000000000000000000102030406070809BD
:104BD00000000000010203044D5154430000000096
:104BE00004000000000000000000000000000000C1
:104BF0003C0001004D51545700000000000000002F
:104C000000000000000000000000000000000000A4
:104C10000000000000000000000000000000000094
:104C20000000000000000000000000000000000084
:104C300080000000000000000000000000000000F4
:104C40000000000000000000000000000000000064
:104C50000000000000000000000000000000000054
:104C60000000000000000000000000000000000044
:104C7000904C00080000002024000000A023000841
:104C8000B44C0008240000206C1C0000B023000875
:104C90000000000001000000100000000000000003
:104CA0000024F400000000000000C8000000000024
:044CB0000000000000
:0400000508000131BD
:00000001FF
